:100000000C945A000C9477000C9477000C947700B1
:100010000C9477000C9477000C9477000C94770084
:100020000C9477000C9477000C9477000C94770074
:100030000C9477000C9477000C9477000C94770064
:100040000C9477000C9477000C940B020C947700BE
:100050000C9477000C9477000C9477000C94770044
:100060000C9477000C9477000C9477000C94770034
:100070000C9430020C9477000C9477000C94770069
:100080000C9477000C9477000C9477000C94770014
:100090000C9477000C9477000C9477000C94770004
:1000A0000C9477000C9477000C9477000C947700F4
:1000B0000C94770011241FBECFEFD8E0DEBFCDBF78
:1000C00011E0A0E0B1E0EEEBF6E002C005900D9289
:1000D000AC31B107D9F721E0ACE1B1E001C01D922C
:1000E000A833B207E1F70E942E030C945D030C9431
:1000F000000060E071EE80E090E00E943A0260E073
:1001000071EE80E090E00E944D024DE464E670E004
:1001100080E090E00C945C0180E091E00E94C902D4
:1001200080E091E00E94F90280E091E00E94640288
:1001300080E091E00E94940264E670E080E090E04C
:100140000E9436010C94C5009093CD008093CC00A2
:1001500088E18093C9001092C80086E08093CA00AD
:1001600008959093C5008093C40088E18093C100F6
:100170001092C00086E08093C20008959091C8005C
:1001800095FFFCCF8093CE0008959091C00095FF1D
:10019000FCCF8093C60008958091C80087FFFCCFF4
:1001A0008091CE0008958091C00087FFFCCF8091A0
:1001B000C60008958091C80087FF03C08091CE00DB
:1001C000F9CF08958091C00087FF03C08091C600D9
:1001D000F9CF08951092C90008951092C1000895B2
:1001E000399A6B9A3898ECEAF0E0808180658083D8
:1001F000EDEAF0E080818E7F808308956A9A72989C
:100200000895ECEAF0E080818F7B8083729A0895F4
:100210008093AE008091AD0087FFFCCF8091AE004F
:10022000089584B1886284B924988CB581658CBDA9
:100230008DB58E7F8DBD0895229A2A9808958CB52C
:100240008F7B8CBD2A9A08958EBD0DB407FEFDCF1D
:100250008EB508956A9A729A0E94F0007298089575
:100260006A9A729A0C9401010C9408011F93CF931F
:10027000DF9300D0CDB7DEB7182F6A8379830E9451
:100280002A0183E00E943401812F0E943401798188
:10029000872F0E9434016A81862F0E94340180E0FA
:1002A0000E94080189830E94300189810F900F907C
:1002B000DF91CF911F9108951F93CF93DF9300D0CB
:1002C0001F92CDB7DEB7182F4B836A8379830E94C4
:1002D0002A0182E00E943401812F0E943401798139
:1002E000872F0E9434016A81862F0E9434014B813E
:1002F000842F0E9408010F900F900F90DF91CF91F3
:100300001F910C9430011F93CF93DF9300D0CDB792
:10031000DEB7182F6A8379830E942A0183E00E9446
:100320003401812F0E9434017981872F0E9434018A
:100330006A81862F0F900F90DF91CF911F910C94BF
:10034000340180E00C9408010C9430011F93CF938A
:10035000DF9300D0CDB7DEB7182F6A8379830E9470
:100360002A0182E00E943401812F0E9434017981A8
:10037000872F0E9434016A81862F0F900F90DF91A2
:10038000CF911F910C9434018F929F92AF92BF92A4
:10039000CF92DF92EF92FF92CF93DF9300D000D005
:1003A000CDB7DEB76B017C0129833A834B835C8335
:1003B0000E94A601812C912C540129813A814B8104
:1003C0005C81DA01C9018C199D09AE09BF096C0174
:1003D0007D018C149D04AE04BF0448F480E00E94AB
:1003E00034019FEF891A990AA90AB90AF2CF0F902E
:1003F0000F900F900F90DF91CF91FF90EF90DF90D3
:10040000CF90BF90AF909F908F900C9430010C9440
:1004100034010C9430011F920F920FB60F921124E9
:100420002F933F934F935F936F937F938F939F93FC
:10043000AF93BF93EF93FF938BE60E94C500FF91AC
:10044000EF91BF91AF919F918F917F916F915F914C
:100450004F913F912F910F900FBE0F901F901895C5
:100460001F920F920FB60F9211240F900FBE0F9094
:100470001F9018959B01AC0184E0220F331F441F8D
:10048000551F8A95D1F760E074E284EF90E00E94F6
:100490003B03C90101970C94B1009B01AC0184E0BE
:1004A000220F331F441F551F8A95D1F760E074E275
:1004B00084EF90E00E943B03C90101970C94A400D3
:1004C0000C94ED000C94EA00CF92DF92EF92FF9231
:1004D0000F931F93CF93DF93EC018C01C12CD12C90
:1004E0007601FE0101900020E9F73197AF014C1B26
:1004F0005D0B60E070E0C416D506E606F70658F41A
:10050000F80181918F010E94BE00FFEFCF1ADF0A30
:10051000EF0AFF0AE6CFDF91CF911F910F91FF9075
:10052000EF90DF90CF900895CF92DF92EF92FF92FD
:100530000F931F93CF93DF93EC018C01C12CD12C2F
:100540007601FE0101900020E9F73197AF014C1BC5
:100550005D0B60E070E0C416D506E606F70658F4B9
:10056000F80181918F010E94BE00FFEFCF1ADF0AD0
:10057000EF0AFF0AE6CF8DE00E94BE008AE0DF911D
:10058000CF911F910F91FF90EF90DF90CF900C943F
:10059000BE00CF92DF92EF92FF920F931F93CF9303
:1005A000DF93EC018C01C12CD12C7601FE0101906E
:1005B0000020E9F73197AF014C1B5D0B60E070E064
:1005C000C416D506E606F70658F4F80181918F01A6
:1005D0000E94C500FFEFCF1ADF0AEF0AFF0AE6CF3D
:1005E000DF91CF911F910F91FF90EF90DF90CF900F
:1005F0000895CF92DF92EF92FF920F931F93CF93C4
:10060000DF93EC018C01C12CD12C7601FE0101900D
:100610000020E9F73197AF014C1B5D0B60E070E003
:10062000C416D506E606F70658F4F80181918F0145
:100630000E94C500FFEFCF1ADF0AEF0AFF0AE6CFDC
:100640008DE00E94C5008AE0DF91CF911F910F914C
:10065000FF90EF90DF90CF900C94C5000E9479003E
:100660000E948C0080E092E1AAE7B0E00197A10926
:10067000B109E1F7F5CFA1E21A2EAA1BBB1BFD01C0
:100680000DC0AA1FBB1FEE1FFF1FA217B307E40771
:10069000F50720F0A21BB30BE40BF50B661F771FC9
:1006A000881F991F1A9469F76095709580959095A9
:0E06B0009B01AC01BD01CF010895F894FFCF6E
:1006BE00746869732069732061207374616E64615C
:0C06CE007264206320737472696E670010
:00000001FF
